:1000000000308A00342800000A108A100A11820782
:100010003F3406345B344F3466346D347D340734FA
:100020007F3467340A108A100A118207BF3486347D
:10003000DB34CF34E634ED34FD348734FF34E73439
:100040002830840083130008031933280630F80091
:10005000F701F70B2928F80B28287B30F700F70B5E
:100060002F28800B2628080003081F398300FF3043
:10007000A70083161F149F141F159F1107309C00A3
:1000800083130030860087008312A700A001200898
:10009000093C031CE328A1012108093C031CE128B9
:1000A000A2012208053C031CDF28A3012308093C08
:1000B000031CDD28A4012408053C031CDB28A50142
:1000C0002508093C031CD928A60126083A3C031C34
:1000D000D7280030A700831687013E30831287009F
:1000E00025080420A80083168601831228088600AC
:1000F0000230A80020200030A700831687013D3081
:100100008312870024080420A80083168601831226
:10011000280886000230A80020200030A70083169F
:1001200087013B308312870023081220A800831622
:1001300086018312280886000230A80020200030A3
:10014000A700831687013730831287002208042016
:10015000A800831686018312280886000230A800B2
:1001600020200030A700831687012F3083128700DC
:1001700021081220A8008316860183122808860011
:100180000230A80020200030A700831687011F300E
:100190008312870020080420A8008316860183129A
:1001A000280886000230A8002020A60A6528A50A93
:1001B0006028A40A5B28A30A5628A20A5128A10A8B
:0A01C0004C28A00A472846286300D7
:02400E00723FFF
:00000001FF
;PIC16F876A
;CRC=CEE9  CREATED="23-Ara-20 11:13"
